S01200004C43445F4B45595041442E7372656322
S11300000C942A000C943F000C943F000C943F0085
S11300100C943F000C943F000C943F000C943F0060
S11300200C943F000C943F000C943F000C943F0050
S11300300C943F000C943F000C943F000C943F0040
S11300400C943F000C943F000C943F000C943F0030
S11300500C943F0011241FBECFE5D8E0DEBFCDBF16
S113006010E0A0E6B0E0ECEDFDE002C005900D92DA
S1130070A03DB107D9F70E948C010C94EC060C94B6
S1130080000081B3807F81BB81B3806F81BB8FEF20
S113009082BB089588B3877F88BB0000000083ED8E
S11300A090E30197F1F700C0000088B3886088BB33
S11300B008958AB31ABA88B3846088BB88B38D7FE5
S11300C088BB0E944A008AB38FEF8ABB88B38B7FB8
S11300D088BB0895CF93C82F0E945900CBBB88B327
S11300E0897F88BB0E944A00CF910895CF93C82F7F
S11300F00E94590088B3826088BBCBBB88B38260FE
S113010088BB88B38B7F88BB0E944A00CF91089537
S113011081E00E946A00089587E893E10197F1F76E
S113012000C0000087B38E6087BB88B3817F88BB23
S11301308AB38FEF8ABB85EA9EE00197F1F700C08E
S113014000000E94880088E30E946A0086E00E9402
S11301506A0080E80E946A008FE00E946A000895A5
S1130160611106C0803158F480580E946A000895D5
S1130170613029F4803118F480540E946A00089593
S11301800F931F93CF93DF938C01C0E0D0E019C08D
S11301900F5F1F4F0E9476002196C031D10529F4CC
S11301A061E080E00E94B0000CC0CE01809702970D
S11301B040F40E94880060E080E00E94B000C0E04B
S11301C0D0E0F80180818111E3CFDF91CF911F91BD
S11301D00F9108950F931F93CF93DF93CDB7DEB79D
S11301E027970FB6F894DEBF0FBECDBF9F938F93B2
S11301F080E690E09F938F938E010F5F1F4F1F93B4
S11302000F930E940204C8010E94C0000F900F9037
S11302100F900F900F900F9027960FB6F894DEBFB3
S11302200FBECDBFDF91CF911F910F9108958F9293
S11302309F92AF92BF92CF92DF92EF92FF920F9371
S11302401F93CF93DF93CDB7DEB760970FB6F894C3
S1130250DEBF0FBECDBF6B017C0120E030E0A90101
S11302600E94A80288231CF403E610E002C00CEBF1
S113027010E020E030E0A901C701B6010E94A80205
S1130280882324F4F7FAF094F7F8F094C701B60140
S11302900E94AD024B015C01072E000C880B990BE8
S11302A00E94E5029B01AC01C701B6010E943B021A
S11302B020E030E44CE156E40E9495030E94AD0234
S11302C07F936F939F928F921F930F9385E690E095
S11302D09F938F938E010F5F1F4F1F930F930E9465
S11302E00204C8010E94C0000FB6F894DEBF0FBE1E
S11302F0CDBF60960FB6F894DEBF0FBECDBFDF91C1
S1130300CF911F910F91FF90EF90DF90CF90BF900E
S1130310AF909F908F9008950E948C000E9441009E
S11303208FE690E00E94C0002FE38DE093E021501F
S113033080409040E1F700C000000E94880086EAF7
S113034090E00E94C00080E20E94760069E174E0BF
S113035081EF91E40E94170189EB90E00E94C000B4
S113036088E790E00E94EA0087EA91E60197F1F7B6
S113037000C0000081E40E94760087EA91E60197BC
S1130380F1F700C0000088E40E94760087EA91E655
S11303900197F1F700C000008DE40E94760087EA1F
S11303A091E60197F1F700C0000085E40E94760011
S11303B087EA91E60197F1F700C0000084E40E9407
S11303C0760087EA91E60197F1F700C000008EE419
S11303D00E94760087EA91E60197F1F700C00000D9
S11303E081E40E94760087EA91E60197F1F700C064
S11303F0000083E50E94760087EA91E60197F1F711
S113040000C0000083E50E94760087EA91E6019728
S1130410F1F700C0000085E40E94760087EA91E6C7
S11304200197F1F700C0000082E50E9476009FE387
S11304302DE083E0915020408040E1F700C00000AF
S11304400E9488009FE32DE083E09150204080408B
S1130450E1F700C000008DEB90E00E94C0009FE334
S11304602DE083E0915020408040E1F700C000007F
S11304700E94880055CF5058BB27AA270E945302D8
S11304800C945B030E944D0338F00E94540320F047
S113049039F49F3F19F426F40C944A030EF4E095C2
S11304A0E7FB0C944403E92F0E946C0358F3BA173A
S11304B0620773078407950720F079F4A6F50C9476
S11304C08E030EF4E0950B2EBA2FA02D0B01B9016B
S11304D090010C01CA01A0011124FF27591B99F0B6
S11304E0593F50F4503E68F11A16F040A22F232FC2
S11304F0342F4427585FF3CF469537952795A79512
S1130500F0405395C9F77EF41F16BA0B620B730BB8
S1130510840BBAF09150A1F0FF0FBB1F661F771F29
S1130520881FC2F70EC0BA0F621F731F841F48F4DE
S1130530879577956795B795F7959E3F08F0B0CF67
S11305409395880F08F09927EE0F9795879508954E
S11305500E94200308F481E008950E94B402689484
S1130560B1110C948F0308950E94740388F09F576F
S113057098F0B92F9927B751B0F0E1F0660F771FC3
S1130580881F991F1AF0BA95C9F714C0B13091F0B9
S11305900E948E03B1E008950C948E03672F782F88
S11305A08827B85F39F0B93FCCF38695779567957E
S11305B0B395D9F73EF490958095709561957F4FEA
S11305C08F4F9F4F0895E89409C097FB3EF4909590
S11305D08095709561957F4F8F4F9F4F9923A9F018
S11305E0F92F96E9BB279395F695879577956795A7
S11305F0B795F111F8CFFAF4BB0F11F460FF1BC0EB
S11306006F5F7F4F8F4F9F4F16C0882311F096E97D
S113061011C0772321F09EE8872F762F05C066232B
S113062071F096E8862F70E060E02AF09A95660FE4
S1130630771F881FDAF7880F9695879597F908959D
S1130640990F0008550FAA0BE0E8FEEF16161706DF
S1130650E807F907C0F012161306E407F50798F047
S1130660621B730B840B950B39F40A2661F0232B60
S1130670242B252B21F408950A2609F4A140A695DC
S11306808FEF811D811D089597F99F6780E870E0C1
S113069060E008959FEF80EC089500240A941616F4
S11306A0170618060906089500240A94121613065C
S11306B0140605060895092E0394000C11F48823EA
S11306C052F0BB0F40F4BF2B11F460FF04C06F5F06
S11306D07F4F8F4F9F4F089557FD9058440F551FDC
S11306E059F05F3F71F04795880F97FB991F61F0B0
S11306F09F3F79F087950895121613061406551F27
S1130700F2CF4695F1DF08C0161617061806991F92
S1130710F1CF86957105610508940895E894BB2787
S113072066277727CB0197F908950E94A8030C94B4
S11307305B030E944D0338F00E94540320F095237C
S113074011F00C9444030C944A0311240C948F0369
S11307500E946C0370F3959FC1F3950F50E0551FF1
S1130760629FF001729FBB27F00DB11D639FAA2702
S1130770F00DB11DAA1F649F6627B00DA11D661F51
S1130780829F2227B00DA11D621F739FB00DA11D72
S1130790621F839FA00D611D221F749F3327A00D2C
S11307A0611D231F849F600D211D822F762F6A2FC8
S11307B011249F5750409AF0F1F088234AF0EE0F2D
S11307C0FF1FBB1F661F771F881F91505040A9F75A
S11307D09E3F510580F00C9444030C948F035F3FBB
S11307E0E4F3983ED4F3869577956795B795F79596
S11307F0E7959F5FC1F7FE2B880F911D969587950E
S113080097F90895AEE0B0E0E8E0F4E00C94C30694
S11308100D891E8986E08C831A8309838FEF9FE7F5
S11308209E838D83AE01475E5F4F6F89788DCE01C5
S113083001960E942404EF81F885E00FF11F1082D5
S11308402E96E4E00C94DF06ABE0B0E0EAE2F4E0DC
S11308500C94B5066C017B018A01FC011782168297
S1130860838181FFCCC1CE0101963C01F6019381C5
S1130870F70193FD859193FF81917F01882309F40A
S1130880BAC1853239F493FD859193FF81917F013B
S1130890853229F4B60190E00E941B06E7CF912C23
S11308A0212C312CFFE1F315D8F08B3279F038F498
S11308B0803279F08332A1F4232D20611DC08D3262
S11308C061F0803369F4232D216016C0832D82608A
S11308D0382EE32DE4603E2E2AC0F32DF8601DC0AF
S11308E037FC2DC020ED280F2A3040F08E32B9F4A9
S11308F036FC81C1232D2064322E19C036FE06C079
S11309008AE0989E200D1124922E11C0EAE02E9EBA
S1130910200D1124222EF32DF0623F2E08C08C36B8
S113092021F4832D8068382E02C0883641F4F70103
S113093093FD859193FF81917F018111B3CF982F0E
S11309409F7D9554933028F40C5F1F4F9FE3998348
S11309500DC0833631F0833771F0833509F059C007
S113096021C0F801808189830E5F1F4F88248394FE
S1130970912C530113C02801F2E04F0E511CF801D1
S1130980A080B18036FE03C0692D70E002C06FEF15
S11309907FEFC5010E9410064C018201F32DFF7701
S11309A03F2E16C0280122E0420E511CF801A080FF
S11309B0B18036FE03C0692D70E002C06FEF7FEF97
S11309C0C5010E9405064C01F32DF0683F2E8201FB
S11309D033FC1BC0822D90E088169906B0F4B60152
S11309E080E290E00E941B062A94F4CFF50137FCC4
S11309F0859137FE81915F01B60190E00E941B064C
S1130A0021102A9421E0821A91088114910471F72B
S1130A10E8C0843611F0893641F5F80137FE07C085
S1130A2060817181828193810C5F1F4F08C0608156
S1130A307181072E000C880B990B0E5F1F4FF32D4D
S1130A40FF763F2E97FF09C090958095709561952C
S1130A507F4F8F4F9F4FF0683F2E2AE030E0A30175
S1130A600E945706882E861845C0853731F4232DF9
S1130A702F7EB22E2AE030E025C0932D997FB92E27
S1130A808F36C1F018F4883579F0B5C0803719F085
S1130A90883721F0B0C0E92FE061BE2EB4FE0DC04E
S1130AA0FB2DF460BF2E09C034FE0AC0292F266036
S1130AB0B22E06C028E030E005C020E130E002C0DC
S1130AC020E132E0F801B7FE07C0608171818281C4
S1130AD093810C5F1F4F06C06081718180E090E0BC
S1130AE00E5F1F4FA3010E945706882E8618FB2D08
S1130AF0FF773F2E36FE0DC0232D2E7FA22E8914A4
S1130B0058F434FE0BC032FC09C0832D8E7EA82E0F
S1130B1005C0B82CA32C03C0B82C01C0B92CA4FE6A
S1130B200FC0FE01E80DF11D8081803321F49A2D60
S1130B30997EA92E09C0A2FE06C0B394B39404C042
S1130B408A2D867809F0B394A3FC11C0A0FE06C0D8
S1130B50B21488F4280C922C9B180EC0B21460F4C2
S1130B60B60180E290E00E941B06B394F7CFB21462
S1130B7018F42B1802C0982C212CA4FE10C0B60126
S1130B8080E390E00E941B06A2FE17C0A1FC03C0F4
S1130B9088E790E002C088E590E0B6010CC08A2D99
S1130BA0867859F0A1FE02C08BE201C080E2A7FC66
S1130BB08DE2B60190E00E941B06891438F4B60158
S1130BC080E390E00E941B069A94F7CF8A94F30185
S1130BD0E80DF11D8081B60190E00E941B06811092
S1130BE0F5CF222009F442CEB60180E290E00E94C3
S1130BF01B062A94F6CFF6018681978102C08FEFF7
S1130C009FEF2B96E2E10C94D106FC010590615014
S1130C1070400110D8F7809590958E0F9F1F08950E
S1130C20FC016150704001900110D8F780959095B7
S1130C308E0F9F1F08950F931F93CF93DF93FB0194
S1130C40238121FD03C08FEF9FEF2CC022FF16C02C
S1130C5046815781248135814217530744F4A0818A
S1130C60B1819D012F5F3F4F318320838C93268177
S1130C7037812F5F3F4F3783268314C08B01EC01EC
S1130C80FB010084F185E02D0995892BE1F6D8015B
S1130C9016968D919C911797019617969C938E9317
S1130CA01697CE01DF91CF911F910F910895FA010C
S1130CB0AA27283051F1203181F1E8946F936E7F97
S1130CC06E5F7F4F8F4F9F4FAF4FB1E03ED0B4E088
S1130CD03CD0670F781F891F9A1FA11D680F791FC9
S1130CE08A1F911DA11D6A0F711D811D911DA11DDA
S1130CF020D009F468943F912AE0269F11243019EA
S1130D00305D3193DEF6CF010895462F4770405D84
S1130D104193B3E00FD0C9F7F6CF462F4F70405D33
S1130D204A3318F0495D31FD4052419302D0A9F78E
S1130D30EACFB4E0A6959795879577956795BA9588
S1130D40C9F700976105710508959B01AC010A2E4E
S1130D5006945795479537952795BA95C9F7620F25
S1130D60731F841F951FA01D08952F923F924F92C9
S1130D705F926F927F928F929F92AF92BF92CF9227
S1130D80DF92EF92FF920F931F93CF93DF93CDB730
S1130D90DEB7CA1BDB0B0FB6F894DEBF0FBECDBFA8
S1130DA009942A88398848885F846E847D848C8479
S1130DB09B84AA84B984C884DF80EE80FD800C8182
S1130DC01B81AA81B981CE0FD11D0FB6F894DEBF65
S10F0DD00FBECDBFED010895F894FFCFD5
S1130DDC2564002D00257325642E253034640048C9
S1130DEC456C6C6F20494E20456D62656464656486
S1130DFC2D53797374656D204469706C6F6D61202B
S1130E0C4279203A20456E672E41686D6564204E08
S1130E1C6173736572004E756D62657273204578EB
S1130E2C616D706C65203A2000202B200054657392
S1130E3C74204B65795061642020626567696E008B
S9030000FC
