S02200005461736B3228436F756E746572207573696E6720375F536567292E73726563F1
S11300000C942A000C9447000C9447000C9447006D
S11300100C9447000C9447000C9447000C94470040
S11300200C9447000C9447000C9447000C94470030
S11300300C9447000C9447000C9447000C94470020
S11300400C9447000C9447000C9447000C94470010
S11300500C94470011241FBECFE5D8E0DEBFCDBF0E
S113006010E0A0E6B0E0EAEBF1E002C005900D92EA
S1130070AA36B107D9F720E0AAE6B0E001C01D9284
S1130080AC36B207E1F70E9449000C94DB000C94F3
S113009000008AB38FEF8ABB97B387BB94B384BB4A
S11300A0E0E6F0E0808188BB80818BBB30E03EC01D
S11300B085B3807F85BB85B3832B85BB85E392E8BD
S11300C090936B0080936A0006C0000001979093A0
S11300D06B0080936A0080916A0090916B00009796
S11300E0A1F720E01DC085B38F7085BB95B3822F27
S11300F08295807F892B85BB85E392E890936B0082
S113010080936A0006C00000019790936B0080936F
S11301106A0080916A0090916B000097A1F72F5FAD
S11301202A3008F385B38F7085BB3F5F3A3008F4FB
S1130130BFCF85B315BA30E03BC0E32FF0E0E05AFF
S1130140FF4F80818BBB85E392E890936B00809393
S11301506A0006C00000019790936B0080936A00C8
S113016080916A0090916B000097A1F720E01AC07B
S1130170E22FF0E0E05AFF4F808188BB85E392E8EC
S113018090936B0080936A0006C0000001979093DF
S11301906B0080936A0080916A0090916B000097D5
S11301A0A1F72F5F2A3020F38091600088BB3F5F66
S10D01B03A3018F275CFF894FFCF2F
S10D01BA4079243019120258001095
S9030000FC
