S01D0000746F67676C655F384C6564735F6F6E6562796F6E652E73726563A8
S11300000C942A000C943C000C943C000C943C008E
S11300100C943C000C943C000C943C000C943C006C
S11300200C943C000C943C000C943C000C943C005C
S11300300C943C000C943C000C943C000C943C004C
S11300400C943C000C943C000C943C000C943C003C
S11300500C943C0011241FBECFE5D8E0DEBFCDBF19
S113006020E0A0E6B0E001C01D92A236B207E1F79D
S11300700E943E000C9453010C94000087B38E7FC1
S113008087BB8AB381608ABB8AB382608ABB8AB326
S113009084608ABB8AB388608ABB8AB380618ABB66
S11300A08AB380628ABB8AB380648ABB8AB380685D
S11300B08ABBB09BFECF8BB381608BBB80E395E79B
S11300C0909361008093600006C0000001979093B4
S11300D061008093600080916000909161000097BE
S11300E0A1F7B09BFECF8BB382608BBB80E395E717
S11300F0909361008093600006C000000197909384
S1130100610080936000809160009091610000978D
S1130110A1F7B09BFECF8BB384608BBB80E395E7E4
S1130120909361008093600006C000000197909353
S1130130610080936000809160009091610000975D
S1130140A1F7B09BFECF8BB388608BBB80E395E7B0
S1130150909361008093600006C000000197909323
S1130160610080936000809160009091610000972D
S1130170A1F7B09BFECF8BB380618BBB80E395E787
S1130180909361008093600006C0000001979093F3
S113019061008093600080916000909161000097FD
S11301A0A1F7B09BFECF8BB380628BBB80E395E756
S11301B0909361008093600006C0000001979093C3
S11301C061008093600080916000909161000097CD
S11301D0A1F7B09BFECF8BB380648BBB80E395E724
S11301E0909361008093600006C000000197909393
S11301F0610080936000809160009091610000979D
S1130200A1F7B09BFECF8BB380688BBB80E395E7EF
S1130210909361008093600006C000000197909362
S1130220610080936000809160009091610000976C
S1130230A1F7B09BFECF27E020C080E395E7909321
S113024061008093600006C00000019790936100F4
S11302508093600080916000909161000097A1F705
S11302603BB381E090E0022E02C0880F991F0A94EC
S1130270E2F7809583238BBB21502223F4F680E39D
S113028095E7909361008093600006C00000019799
S11302909093610080936000809160009091610070
S10D02A00097A1F706CFF894FFCFF2
S9030000FC
