S00C0000554152542E73726563DC
S11300000C942A000C9447000C9447000C9447006D
S11300100C9447000C9447000C9447000C94470040
S11300200C9447000C9447000C9447000C94470030
S11300300C9447000C9447000C9447000C94470020
S11300400C9447000C9447000C9447000C94470010
S11300500C94470011241FBECFE5D8E0DEBFCDBF0E
S113006010E0A0E6B0E0E8EBF3E002C005900D92EA
S1130070A836B107D9F720E0A8E6B0E001C01D9288
S1130080AA36B207E1F70E9423010C94DA010C941A
S1130090000088B3877F88BB0000000082E896E0F8
S11300A0909369008093680006C0000001979093C4
S11300B069008093680080916800909169000097BE
S11300C0A1F788B3886088BB0895CF93C82F8BB3FA
S11300D08F709C2F907F892B8BBB88B3897F88BBC3
S11300E00E9449002BB330E1C39FC0011124922F19
S11300F09F70892B8BBB88B3897F88BB0E94490082
S1130100CF910895CF93C82F8BB38F709C2F907F7E
S1130110892B8BBB88B3826088BB88B38B7F88BBF9
S11301200E9449002BB330E1C39FC0011124922FD8
S11301309F70892B8BBB88B3826088BB88B38B7F0D
S113014088BB0E944900CF91089581E00E94650018
S113015008958AE992E0909369008093680006C04C
S11301600000019790936900809368008091680073
S1130170909169000097A1F787B38E6087BB88B31D
S1130180817F88BB8AB3806F8ABB84EF91E09093B0
S113019069008093680006C000000197909369008D
S11301A08093680080916800909169000097A1F79E
S11301B00E94A50082E00E94650088E20E9465001A
S11301C086E00E94650080E80E9465008FE00E943E
S11301D065000895611106C0803158F480580E946A
S11301E065000895613029F4803118F480540E9428
S11301F0650008950F931F93CF93DF938C01C0E0A4
S1130200D0E018C00F5F1F4F0E9482002196C031BA
S1130210D10529F461E080E00E94EA000BC0C032FD
S1130220D10544F00E94A50060E080E00E94EA004D
S1130230C0E0D0E0F80180818111E4CFDF91CF915B
S11302401F910F910895CF93DF93CDB7DEB7C456B6
S1130250D1090FB6F894DEBF0FBECDBFFE013196B3
S113026084E6DF011D928A95E9F70E9464010E94E9
S1130270A90081E60E949B0188E60E949B018DE60D
S11302800E949B0185E60E949B0184E60E949B01DB
S11302908DE00E949B0180E690E00E94A3010E94F1
S11302A09F01182F0E94A500812F0E948200CE0179
S11302B001960E94B90161E080E00E94EA00CE014B
S11302C001960E94FA00D5CF80B58F7B80BD8BB19B
S11302D08D7F8BB983E389B980B58F7780BD10BCDE
S11302E080B5806880BD80B5826080BD80B5846043
S11302F080BD8AB18B7F8AB980B58F7E80BD80B581
S11303008F7D80BD80B5877F80BD8AB18F778AB9A4
S11303108AB18F7B8AB98AB18F7D8AB98BB18E7F7E
S11303208BB980B58E7F80BD8AB188608AB98AB165
S113033080618AB908955D9BFECF8CB908955F9B57
S1130340FECF8CB108950F931F93CF938C01C0E01F
S113035003C00E949B01CF5FF801EC0FF11D808167
S1130360C817B8F38DE00E949B01CF911F910F91A4
S11303700895EF92FF920F931F93CF938C010E94E5
S11303809F01F8018083C0E008C0CF5F7801EC0EC4
S1130390F11C0E949F01F7018083F801EC0FF11D0D
S11303A080818D3091F71082CF911F910F91FF9032
S10B03B0EF900895F894FFCFCB
S10B03B84E61737365720000CD
S9030000FC
