:100000000C942A000C9447000C9447000C94470071
:100010000C9447000C9447000C9447000C94470044
:100020000C9447000C9447000C9447000C94470034
:100030000C9447000C9447000C9447000C94470024
:100040000C9447000C9447000C9447000C94470014
:100050000C94470011241FBECFE5D8E0DEBFCDBF12
:1000600010E0A0E6B0E0E6EEF1E002C005900D92EF
:10007000A036B107D9F720E0A0E6B0E001C01D929C
:10008000A036B207E1F70E9449000C94F1000C94ED
:1000900000000E94C500FFCF843008F075C06830B2
:1000A00008F072C04130B9F5813091F028F082300B
:1000B000D9F0833029F12FC09AB321E030E0062E29
:1000C00002C0220F331F0A94E2F7292B2ABB23C058
:1000D00097B321E030E0062E02C0220F331F0A94AE
:1000E000E2F7292B27BB17C094B321E030E0062E9E
:1000F00002C0220F331F0A94E2F7292B24BB0BC046
:1001000091B321E030E0062E02C0220F331F0A9483
:10011000E2F7292B21BB411137C0813091F028F043
:100120008230D9F0833029F108952AB381E090E03C
:1001300002C0880F991F6A95E2F7809582238ABBD7
:10014000089527B381E090E002C0880F991F6A9557
:10015000E2F78095822387BB089524B381E090E085
:1001600002C0880F991F6A95E2F78095822384BBAD
:10017000089521B381E090E002C0880F991F6A952D
:10018000E2F78095822381BB08958DB18F778DB979
:100190008DB18F7D8DB98DB180618DB987B341E00F
:1001A00064E00E944C0087B341E065E00E944C008F
:1001B00087B341E067E00E944C0087B340E066E00F
:1001C0000E944C008DB1877F8DB98DB18B7F8DB929
:1001D0008DB18DB98EB18E7F8EB98DB180648DB9A0
:0601E0000895F894FFCF22
:00000001FF
