:100000000C942A000C9423020C944C020C9475025C
:100010000C9447000C9447000C9447000C94470044
:100020000C9447000C9447000C9447000C94470034
:100030000C9447000C9447000C9447000C94470024
:100040000C9447000C9447000C9447000C94470014
:100050000C94470011241FBECFE5D8E0DEBFCDBF12
:1000600010E0A0E6B0E0E0E4F5E002C005900D92FB
:10007000A036B107D9F720E0A0E6B0E001C01D929C
:10008000A836B207E1F70E94C7000C949E020C94B8
:10009000000082B3806282BB85E392E890936700A0
:1000A0008093660006C000000197909367008093DC
:1000B000660080916600909167000097A1F785E344
:1000C00092E8909367008093660006C00000019755
:1000D000909367008093660080916600909167001E
:1000E0000097A1F7089582B3806482BB85E392E80C
:1000F000909367008093660006C00000019790937C
:100100006700809366008091660090916700009779
:10011000A1F785E392E8909367008093660006C09C
:1001200000000197909367008093660080916600BD
:10013000909167000097A1F7089582B3806882BB11
:1001400085E392E8909367008093660006C0000004
:10015000019790936700809366008091660090916C
:1001600067000097A1F785E392E89093670080937A
:10017000660006C0000001979093670080936600B8
:1001800080916600909167000097A1F708950E9402
:100190000B0241E065E083E00E94F40041E066E08C
:1001A00083E00E94F40041E067E083E00E94F400F5
:1001B00040E065E083E00E946D0140E066E083E09E
:1001C0000E946D0140E067E083E00E946D0189E4D8
:1001D00090E00E94140283E790E00E9419028DE9EA
:1001E00090E00E941E02E4CF843008F075C06830B1
:1001F00008F072C04130B9F5813091F028F08230BA
:10020000D9F0833029F12FC09AB321E030E0062ED7
:1002100002C0220F331F0A94E2F7292B2ABB23C006
:1002200097B321E030E0062E02C0220F331F0A945C
:10023000E2F7292B27BB17C094B321E030E0062E4C
:1002400002C0220F331F0A94E2F7292B24BB0BC0F4
:1002500091B321E030E0062E02C0220F331F0A9432
:10026000E2F7292B21BB411137C0813091F028F0F2
:100270008230D9F0833029F108952AB381E090E0EB
:1002800002C0880F991F6A95E2F7809582238ABB86
:10029000089527B381E090E002C0880F991F6A9506
:1002A000E2F78095822387BB089524B381E090E034
:1002B00002C0880F991F6A95E2F78095822384BB5C
:1002C000089521B381E090E002C0880F991F6A95DC
:1002D000E2F78095822381BB0895843008F075C0D1
:1002E000683008F072C04130B9F5813091F028F0E3
:1002F0008230D9F0833029F12FC09BB321E030E068
:10030000062E02C0220F331F0A94E2F7292B2BBBC3
:1003100023C098B321E030E0062E02C0220F331F25
:100320000A94E2F7292B28BB17C095B321E030E0EF
:10033000062E02C0220F331F0A94E2F7292B25BB99
:100340000BC092B321E030E0062E02C0220F331F13
:100350000A94E2F7292B22BB411137C0813091F07A
:1003600028F08230D9F0833029F108952BB381E051
:1003700090E002C0880F991F6A95E2F7809582236A
:100380008BBB089528B381E090E002C0880F991FCD
:100390006A95E2F78095822388BB089525B381E0B2
:1003A00090E002C0880F991F6A95E2F7809582233A
:1003B00085BB089522B381E090E002C0880F991FA9
:1003C0006A95E2F78095822382BB08958FB7806893
:1003D0008FBF08950E94E6018BB780648BBF85B7FD
:1003E000816085BF85B78D7F85BF08950E94E60136
:1003F0008BB780688BBF85B7846085BF85B7886001
:1004000085BF08950E94E6018BB780628BBF84B7D9
:100410008F7B84BF08950E94E6010E94EA010E943A
:10042000F6010E9402020895909365008093640093
:100430000895909363008093620008959093610003
:100440008093600008951F920F920FB60F921124AF
:100450002F933F934F935F936F937F938F939F93CC
:10046000AF93BF93EF93FF93E0916400F091650029
:10047000309709F00995FF91EF91BF91AF919F914E
:100480008F917F916F915F914F913F912F910F903D
:100490000FBE0F901F9018951F920F920FB60F92DC
:1004A00011242F933F934F935F936F937F938F9379
:1004B0009F93AF93BF93EF93FF93E0916200F0910E
:1004C0006300309709F00995FF91EF91BF91AF91CB
:1004D0009F918F917F916F915F914F913F912F915C
:1004E0000F900FBE0F901F9018951F920F920FB68E
:1004F0000F9211242F933F934F935F936F937F93AA
:100500008F939F93AF93BF93EF93FF93E09160001E
:10051000F0916100309709F00995FF91EF91BF913B
:10052000AF919F918F917F916F915F914F913F918B
:100530002F910F900FBE0F901F901895F894FFCF3A
:00000001FF
